{
  "address": "0xd060f3350489649ED736795f5493Ee733803ea33",
  "abi": [
    {
      "inputs": [
        {
          "internalType": "string",
          "name": "_institutionName",
          "type": "string"
        },
        {
          "internalType": "address",
          "name": "_schoolAdmin",
          "type": "address"
        }
      ],
      "stateMutability": "nonpayable",
      "type": "constructor"
    },
    {
      "inputs": [],
      "name": "AccessControlBadConfirmation",
      "type": "error"
    },
    {
      "inputs": [
        {
          "internalType": "address",
          "name": "account",
          "type": "address"
        },
        {
          "internalType": "bytes32",
          "name": "neededRole",
          "type": "bytes32"
        }
      ],
      "name": "AccessControlUnauthorizedAccount",
      "type": "error"
    },
    {
      "inputs": [],
      "name": "ArrayLengthMismatch",
      "type": "error"
    },
    {
      "inputs": [
        {
          "internalType": "bytes32",
          "name": "batchId",
          "type": "bytes32"
        }
      ],
      "name": "BatchAlreadyProcessed",
      "type": "error"
    },
    {
      "inputs": [
        {
          "internalType": "uint256",
          "name": "tokenId",
          "type": "uint256"
        }
      ],
      "name": "DiplomaAlreadyRevoked",
      "type": "error"
    },
    {
      "inputs": [
        {
          "internalType": "uint256",
          "name": "tokenId",
          "type": "uint256"
        }
      ],
      "name": "DiplomaNotActive",
      "type": "error"
    },
    {
      "inputs": [
        {
          "internalType": "uint256",
          "name": "tokenId",
          "type": "uint256"
        }
      ],
      "name": "DiplomaNotFound",
      "type": "error"
    },
    {
      "inputs": [
        {
          "internalType": "bytes32",
          "name": "documentHash",
          "type": "bytes32"
        },
        {
          "internalType": "uint256",
          "name": "existingTokenId",
          "type": "uint256"
        }
      ],
      "name": "DuplicateDocument",
      "type": "error"
    },
    {
      "inputs": [],
      "name": "EnforcedPause",
      "type": "error"
    },
    {
      "inputs": [],
      "name": "ExpectedPause",
      "type": "error"
    },
    {
      "inputs": [],
      "name": "InvalidDocumentHash",
      "type": "error"
    },
    {
      "inputs": [],
      "name": "InvalidRecipient",
      "type": "error"
    },
    {
      "inputs": [],
      "name": "InvalidStudentId",
      "type": "error"
    },
    {
      "inputs": [],
      "name": "ReentrancyGuardReentrantCall",
      "type": "error"
    },
    {
      "inputs": [],
      "name": "SoulboundTokenNonTransferable",
      "type": "error"
    },
    {
      "inputs": [
        {
          "internalType": "address",
          "name": "caller",
          "type": "address"
        }
      ],
      "name": "Unauthorized",
      "type": "error"
    },
    {
      "anonymous": false,
      "inputs": [
        {
          "indexed": true,
          "internalType": "bytes32",
          "name": "batchId",
          "type": "bytes32"
        },
        {
          "indexed": false,
          "internalType": "uint256[]",
          "name": "tokenIds",
          "type": "uint256[]"
        },
        {
          "indexed": false,
          "internalType": "uint256",
          "name": "count",
          "type": "uint256"
        },
        {
          "indexed": false,
          "internalType": "address",
          "name": "issuedBy",
          "type": "address"
        }
      ],
      "name": "BatchIssued",
      "type": "event"
    },
    {
      "anonymous": false,
      "inputs": [
        {
          "indexed": true,
          "internalType": "uint256",
          "name": "tokenId",
          "type": "uint256"
        },
        {
          "indexed": true,
          "internalType": "address",
          "name": "recipient",
          "type": "address"
        },
        {
          "indexed": true,
          "internalType": "string",
          "name": "studentId",
          "type": "string"
        },
        {
          "indexed": false,
          "internalType": "string",
          "name": "studentName",
          "type": "string"
        },
        {
          "indexed": false,
          "internalType": "string",
          "name": "degreeTitle",
          "type": "string"
        },
        {
          "indexed": false,
          "internalType": "string",
          "name": "ipfsCID",
          "type": "string"
        },
        {
          "indexed": false,
          "internalType": "bytes32",
          "name": "documentHash",
          "type": "bytes32"
        },
        {
          "indexed": false,
          "internalType": "uint256",
          "name": "issuedAt",
          "type": "uint256"
        },
        {
          "indexed": false,
          "internalType": "address",
          "name": "issuedBy",
          "type": "address"
        }
      ],
      "name": "DiplomaIssued",
      "type": "event"
    },
    {
      "anonymous": false,
      "inputs": [
        {
          "indexed": true,
          "internalType": "uint256",
          "name": "tokenId",
          "type": "uint256"
        },
        {
          "indexed": true,
          "internalType": "address",
          "name": "recipient",
          "type": "address"
        },
        {
          "indexed": false,
          "internalType": "address",
          "name": "reinstatedBy",
          "type": "address"
        },
        {
          "indexed": false,
          "internalType": "uint256",
          "name": "reinstatedAt",
          "type": "uint256"
        }
      ],
      "name": "DiplomaReinstated",
      "type": "event"
    },
    {
      "anonymous": false,
      "inputs": [
        {
          "indexed": true,
          "internalType": "uint256",
          "name": "tokenId",
          "type": "uint256"
        },
        {
          "indexed": true,
          "internalType": "address",
          "name": "recipient",
          "type": "address"
        },
        {
          "indexed": false,
          "internalType": "string",
          "name": "reason",
          "type": "string"
        },
        {
          "indexed": false,
          "internalType": "address",
          "name": "revokedBy",
          "type": "address"
        },
        {
          "indexed": false,
          "internalType": "uint256",
          "name": "revokedAt",
          "type": "uint256"
        }
      ],
      "name": "DiplomaRevoked",
      "type": "event"
    },
    {
      "anonymous": false,
      "inputs": [
        {
          "indexed": true,
          "internalType": "uint256",
          "name": "tokenId",
          "type": "uint256"
        },
        {
          "indexed": true,
          "internalType": "address",
          "name": "recipient",
          "type": "address"
        },
        {
          "indexed": false,
          "internalType": "string",
          "name": "reason",
          "type": "string"
        },
        {
          "indexed": false,
          "internalType": "address",
          "name": "suspendedBy",
          "type": "address"
        },
        {
          "indexed": false,
          "internalType": "uint256",
          "name": "suspendedAt",
          "type": "uint256"
        }
      ],
      "name": "DiplomaSuspended",
      "type": "event"
    },
    {
      "anonymous": false,
      "inputs": [
        {
          "indexed": false,
          "internalType": "address",
          "name": "account",
          "type": "address"
        }
      ],
      "name": "Paused",
      "type": "event"
    },
    {
      "anonymous": false,
      "inputs": [
        {
          "indexed": true,
          "internalType": "bytes32",
          "name": "role",
          "type": "bytes32"
        },
        {
          "indexed": true,
          "internalType": "bytes32",
          "name": "previousAdminRole",
          "type": "bytes32"
        },
        {
          "indexed": true,
          "internalType": "bytes32",
          "name": "newAdminRole",
          "type": "bytes32"
        }
      ],
      "name": "RoleAdminChanged",
      "type": "event"
    },
    {
      "anonymous": false,
      "inputs": [
        {
          "indexed": true,
          "internalType": "bytes32",
          "name": "role",
          "type": "bytes32"
        },
        {
          "indexed": true,
          "internalType": "address",
          "name": "account",
          "type": "address"
        },
        {
          "indexed": true,
          "internalType": "address",
          "name": "sender",
          "type": "address"
        }
      ],
      "name": "RoleGranted",
      "type": "event"
    },
    {
      "anonymous": false,
      "inputs": [
        {
          "indexed": true,
          "internalType": "bytes32",
          "name": "role",
          "type": "bytes32"
        },
        {
          "indexed": true,
          "internalType": "address",
          "name": "account",
          "type": "address"
        },
        {
          "indexed": true,
          "internalType": "address",
          "name": "sender",
          "type": "address"
        }
      ],
      "name": "RoleRevoked",
      "type": "event"
    },
    {
      "anonymous": false,
      "inputs": [
        {
          "indexed": true,
          "internalType": "uint256",
          "name": "tokenId",
          "type": "uint256"
        },
        {
          "indexed": false,
          "internalType": "address",
          "name": "from",
          "type": "address"
        },
        {
          "indexed": false,
          "internalType": "address",
          "name": "to",
          "type": "address"
        }
      ],
      "name": "TransferAttemptBlocked",
      "type": "event"
    },
    {
      "anonymous": false,
      "inputs": [
        {
          "indexed": false,
          "internalType": "address",
          "name": "account",
          "type": "address"
        }
      ],
      "name": "Unpaused",
      "type": "event"
    },
    {
      "inputs": [],
      "name": "ADMIN_ROLE",
      "outputs": [
        {
          "internalType": "bytes32",
          "name": "",
          "type": "bytes32"
        }
      ],
      "stateMutability": "view",
      "type": "function"
    },
    {
      "inputs": [],
      "name": "DEFAULT_ADMIN_ROLE",
      "outputs": [
        {
          "internalType": "bytes32",
          "name": "",
          "type": "bytes32"
        }
      ],
      "stateMutability": "view",
      "type": "function"
    },
    {
      "inputs": [
        {
          "internalType": "bytes32",
          "name": "batchId",
          "type": "bytes32"
        },
        {
          "internalType": "address[]",
          "name": "recipients",
          "type": "address[]"
        },
        {
          "internalType": "string[]",
          "name": "studentIds",
          "type": "string[]"
        },
        {
          "internalType": "string[]",
          "name": "studentNames",
          "type": "string[]"
        },
        {
          "internalType": "string[]",
          "name": "degreeTitles",
          "type": "string[]"
        },
        {
          "internalType": "string[]",
          "name": "ipfsCIDs",
          "type": "string[]"
        },
        {
          "internalType": "bytes32[]",
          "name": "documentHashes",
          "type": "bytes32[]"
        },
        {
          "internalType": "uint256[]",
          "name": "graduationYears",
          "type": "uint256[]"
        }
      ],
      "name": "batchIssueDiplomas",
      "outputs": [
        {
          "internalType": "uint256[]",
          "name": "tokenIds",
          "type": "uint256[]"
        }
      ],
      "stateMutability": "nonpayable",
      "type": "function"
    },
    {
      "inputs": [
        {
          "internalType": "bytes32",
          "name": "documentHash",
          "type": "bytes32"
        }
      ],
      "name": "findByDocumentHash",
      "outputs": [
        {
          "internalType": "uint256",
          "name": "tokenId",
          "type": "uint256"
        },
        {
          "internalType": "bool",
          "name": "found",
          "type": "bool"
        }
      ],
      "stateMutability": "view",
      "type": "function"
    },
    {
      "inputs": [
        {
          "internalType": "uint256",
          "name": "tokenId",
          "type": "uint256"
        }
      ],
      "name": "getDiploma",
      "outputs": [
        {
          "components": [
            {
              "internalType": "uint256",
              "name": "tokenId",
              "type": "uint256"
            },
            {
              "internalType": "address",
              "name": "recipient",
              "type": "address"
            },
            {
              "internalType": "string",
              "name": "studentId",
              "type": "string"
            },
            {
              "internalType": "string",
              "name": "studentName",
              "type": "string"
            },
            {
              "internalType": "string",
              "name": "degreeTitle",
              "type": "string"
            },
            {
              "internalType": "string",
              "name": "institution",
              "type": "string"
            },
            {
              "internalType": "string",
              "name": "ipfsCID",
              "type": "string"
            },
            {
              "internalType": "bytes32",
              "name": "documentHash",
              "type": "bytes32"
            },
            {
              "internalType": "uint256",
              "name": "issuedAt",
              "type": "uint256"
            },
            {
              "internalType": "uint256",
              "name": "graduationYear",
              "type": "uint256"
            },
            {
              "internalType": "enum DiplomaRegistry.DiplomaStatus",
              "name": "status",
              "type": "uint8"
            },
            {
              "internalType": "address",
              "name": "issuedBy",
              "type": "address"
            },
            {
              "internalType": "string",
              "name": "remarks",
              "type": "string"
            }
          ],
          "internalType": "struct DiplomaRegistry.Diploma",
          "name": "",
          "type": "tuple"
        }
      ],
      "stateMutability": "view",
      "type": "function"
    },
    {
      "inputs": [
        {
          "internalType": "string",
          "name": "studentId",
          "type": "string"
        }
      ],
      "name": "getDiplomasByStudentId",
      "outputs": [
        {
          "internalType": "uint256[]",
          "name": "",
          "type": "uint256[]"
        }
      ],
      "stateMutability": "view",
      "type": "function"
    },
    {
      "inputs": [
        {
          "internalType": "address",
          "name": "wallet",
          "type": "address"
        }
      ],
      "name": "getDiplomasByWallet",
      "outputs": [
        {
          "internalType": "uint256[]",
          "name": "",
          "type": "uint256[]"
        }
      ],
      "stateMutability": "view",
      "type": "function"
    },
    {
      "inputs": [
        {
          "internalType": "uint256",
          "name": "tokenId",
          "type": "uint256"
        }
      ],
      "name": "getRevocationReason",
      "outputs": [
        {
          "internalType": "string",
          "name": "",
          "type": "string"
        }
      ],
      "stateMutability": "view",
      "type": "function"
    },
    {
      "inputs": [
        {
          "internalType": "bytes32",
          "name": "role",
          "type": "bytes32"
        }
      ],
      "name": "getRoleAdmin",
      "outputs": [
        {
          "internalType": "bytes32",
          "name": "",
          "type": "bytes32"
        }
      ],
      "stateMutability": "view",
      "type": "function"
    },
    {
      "inputs": [
        {
          "internalType": "bytes32",
          "name": "role",
          "type": "bytes32"
        },
        {
          "internalType": "address",
          "name": "account",
          "type": "address"
        }
      ],
      "name": "grantRole",
      "outputs": [],
      "stateMutability": "nonpayable",
      "type": "function"
    },
    {
      "inputs": [
        {
          "internalType": "bytes32",
          "name": "role",
          "type": "bytes32"
        },
        {
          "internalType": "address",
          "name": "account",
          "type": "address"
        }
      ],
      "name": "hasRole",
      "outputs": [
        {
          "internalType": "bool",
          "name": "",
          "type": "bool"
        }
      ],
      "stateMutability": "view",
      "type": "function"
    },
    {
      "inputs": [],
      "name": "institutionName",
      "outputs": [
        {
          "internalType": "string",
          "name": "",
          "type": "string"
        }
      ],
      "stateMutability": "view",
      "type": "function"
    },
    {
      "inputs": [
        {
          "internalType": "bytes32",
          "name": "batchId",
          "type": "bytes32"
        }
      ],
      "name": "isBatchProcessed",
      "outputs": [
        {
          "internalType": "bool",
          "name": "",
          "type": "bool"
        }
      ],
      "stateMutability": "view",
      "type": "function"
    },
    {
      "inputs": [
        {
          "internalType": "address",
          "name": "recipient",
          "type": "address"
        },
        {
          "internalType": "string",
          "name": "studentId",
          "type": "string"
        },
        {
          "internalType": "string",
          "name": "studentName",
          "type": "string"
        },
        {
          "internalType": "string",
          "name": "degreeTitle",
          "type": "string"
        },
        {
          "internalType": "string",
          "name": "ipfsCID",
          "type": "string"
        },
        {
          "internalType": "bytes32",
          "name": "documentHash",
          "type": "bytes32"
        },
        {
          "internalType": "uint256",
          "name": "graduationYear",
          "type": "uint256"
        },
        {
          "internalType": "string",
          "name": "remarks",
          "type": "string"
        }
      ],
      "name": "issueDiploma",
      "outputs": [
        {
          "internalType": "uint256",
          "name": "tokenId",
          "type": "uint256"
        }
      ],
      "stateMutability": "nonpayable",
      "type": "function"
    },
    {
      "inputs": [],
      "name": "pause",
      "outputs": [],
      "stateMutability": "nonpayable",
      "type": "function"
    },
    {
      "inputs": [],
      "name": "paused",
      "outputs": [
        {
          "internalType": "bool",
          "name": "",
          "type": "bool"
        }
      ],
      "stateMutability": "view",
      "type": "function"
    },
    {
      "inputs": [
        {
          "internalType": "uint256",
          "name": "tokenId",
          "type": "uint256"
        }
      ],
      "name": "reinstateDiploma",
      "outputs": [],
      "stateMutability": "nonpayable",
      "type": "function"
    },
    {
      "inputs": [
        {
          "internalType": "bytes32",
          "name": "role",
          "type": "bytes32"
        },
        {
          "internalType": "address",
          "name": "callerConfirmation",
          "type": "address"
        }
      ],
      "name": "renounceRole",
      "outputs": [],
      "stateMutability": "nonpayable",
      "type": "function"
    },
    {
      "inputs": [
        {
          "internalType": "uint256",
          "name": "tokenId",
          "type": "uint256"
        },
        {
          "internalType": "string",
          "name": "reason",
          "type": "string"
        }
      ],
      "name": "revokeDiploma",
      "outputs": [],
      "stateMutability": "nonpayable",
      "type": "function"
    },
    {
      "inputs": [
        {
          "internalType": "bytes32",
          "name": "role",
          "type": "bytes32"
        },
        {
          "internalType": "address",
          "name": "account",
          "type": "address"
        }
      ],
      "name": "revokeRole",
      "outputs": [],
      "stateMutability": "nonpayable",
      "type": "function"
    },
    {
      "inputs": [
        {
          "internalType": "bytes4",
          "name": "interfaceId",
          "type": "bytes4"
        }
      ],
      "name": "supportsInterface",
      "outputs": [
        {
          "internalType": "bool",
          "name": "",
          "type": "bool"
        }
      ],
      "stateMutability": "view",
      "type": "function"
    },
    {
      "inputs": [
        {
          "internalType": "uint256",
          "name": "tokenId",
          "type": "uint256"
        },
        {
          "internalType": "string",
          "name": "reason",
          "type": "string"
        }
      ],
      "name": "suspendDiploma",
      "outputs": [],
      "stateMutability": "nonpayable",
      "type": "function"
    },
    {
      "inputs": [],
      "name": "totalIssued",
      "outputs": [
        {
          "internalType": "uint256",
          "name": "",
          "type": "uint256"
        }
      ],
      "stateMutability": "view",
      "type": "function"
    },
    {
      "inputs": [],
      "name": "unpause",
      "outputs": [],
      "stateMutability": "nonpayable",
      "type": "function"
    },
    {
      "inputs": [
        {
          "internalType": "string",
          "name": "newName",
          "type": "string"
        }
      ],
      "name": "updateInstitutionName",
      "outputs": [],
      "stateMutability": "nonpayable",
      "type": "function"
    },
    {
      "inputs": [
        {
          "internalType": "uint256",
          "name": "tokenId",
          "type": "uint256"
        },
        {
          "internalType": "bytes32",
          "name": "fileHash",
          "type": "bytes32"
        }
      ],
      "name": "verifyDiploma",
      "outputs": [
        {
          "internalType": "bool",
          "name": "isValid",
          "type": "bool"
        },
        {
          "internalType": "enum DiplomaRegistry.DiplomaStatus",
          "name": "status",
          "type": "uint8"
        },
        {
          "components": [
            {
              "internalType": "uint256",
              "name": "tokenId",
              "type": "uint256"
            },
            {
              "internalType": "address",
              "name": "recipient",
              "type": "address"
            },
            {
              "internalType": "string",
              "name": "studentId",
              "type": "string"
            },
            {
              "internalType": "string",
              "name": "studentName",
              "type": "string"
            },
            {
              "internalType": "string",
              "name": "degreeTitle",
              "type": "string"
            },
            {
              "internalType": "string",
              "name": "institution",
              "type": "string"
            },
            {
              "internalType": "string",
              "name": "ipfsCID",
              "type": "string"
            },
            {
              "internalType": "bytes32",
              "name": "documentHash",
              "type": "bytes32"
            },
            {
              "internalType": "uint256",
              "name": "issuedAt",
              "type": "uint256"
            },
            {
              "internalType": "uint256",
              "name": "graduationYear",
              "type": "uint256"
            },
            {
              "internalType": "enum DiplomaRegistry.DiplomaStatus",
              "name": "status",
              "type": "uint8"
            },
            {
              "internalType": "address",
              "name": "issuedBy",
              "type": "address"
            },
            {
              "internalType": "string",
              "name": "remarks",
              "type": "string"
            }
          ],
          "internalType": "struct DiplomaRegistry.Diploma",
          "name": "diploma",
          "type": "tuple"
        }
      ],
      "stateMutability": "view",
      "type": "function"
    }
  ],
  "transactionHash": "0x457a600791e5323ace81693e2b40ef9d8dc7de14cd58a9fcfcc2b161bb12fbe2",
  "args": [
    "Đại học STU",
    "0x4Fb3Fd2c8Af9Ce5250463823DbF8B5a3d013e8bd"
  ],
  "numDeployments": 1,
  "solcInputHash": "48bd15936297ec3faece3388c92d9abf",
  "bytecode": "0x6080604052346102a15761337080380380610019816102a5565b9283398101906040818303126102a15780516001600160401b0381116102a15781019082601f830112156102a15781516001600160401b03811161023e5761006a601f8201601f19166020016102a5565b93818552602082850101116102a1576020815f92828096018388015e8501015201516001600160a01b0381168082036102a15760017f9b779b17422d0df92223018b32b4d1fa46e071723d6817e2486d003becc55f005515610252578151916001600160401b03831161023e57600354600181811c91168015610234575b602082101461022057601f81116101bd575b50602090601f84116001146101555761013a93915f918361014a575b50508160011b915f199060031b1c1916176003555b610134816102ca565b50610340565b50604051612f3c90816103d48239f35b015190505f80610116565b90601f1984169160035f52815f20925f5b8181106101a5575091600193918661013a97941061018d575b505050811b0160035561012b565b01515f1960f88460031b161c191690555f808061017f565b92936020600181928786015181550195019301610166565b60035f527fc2575a0e9e593c00f959f8c92f12db2869c3395a3b0502d05e2516446f71f85b601f850160051c81019160208610610216575b601f0160051c01905b81811061020b57506100fa565b5f81556001016101fe565b90915081906101f5565b634e487b7160e01b5f52602260045260245ffd5b90607f16906100e8565b634e487b7160e01b5f52604160045260245ffd5b60405162461bcd60e51b815260206004820152602160248201527f4469706c6f6d6152656769737472793a207a65726f207363686f6f6c41646d696044820152603760f91b6064820152608490fd5b5f80fd5b6040519190601f01601f191682016001600160401b0381118382101761023e57604052565b6001600160a01b0381165f9081525f5160206133505f395f51905f52602052604090205460ff1661033b576001600160a01b03165f8181525f5160206133505f395f51905f5260205260408120805460ff191660011790553391905f5160206133105f395f51905f528180a4600190565b505f90565b6001600160a01b0381165f9081525f5160206133305f395f51905f52602052604090205460ff1661033b576001600160a01b03165f8181525f5160206133305f395f51905f5260205260408120805460ff191660011790553391907fa49807205ce4d355092ef5a8a18f56e8913cf4a201fbe287825b095693c21775905f5160206133105f395f51905f529080a460019056fe6103c0806040526004361015610013575f80fd5b5f3560e01c90816301ffc9a7146125ae5750806307441933146123ff578063248a9ca3146123cd578063273381921461235b5780632f2ff15d1461231e57806336568abe146122c15780633a133e2c146122a65780633f4ba83a146122275780635790c6a71461205e5780635c975abb1461203c5780636857efe814611e5e57806375b238fc14611e24578063796bd36f14611d835780638456cb5914611d2b57806391d1485414611ce257806392810b6514611c8f57806395fa12d614611b2e578063a217fddf14611b14578063a96de20814610e5b578063b115284714610d1f578063bb52fb1e14610cf0578063d547741f14610cac578063d57a3c0714610a87578063e5fb63901461018c578063f5be31931461016f5763f6ed9d5d1461013b575f80fd5b3461016b57602036600319011261016b576004355f5260076020526040805f205481519080825215156020820152f35b5f80fd5b3461016b575f36600319011261016b576020600254604051908152f35b3461016b5761010036600319011261016b576101a661267a565b60243567ffffffffffffffff811161016b576101c690369060040161264c565b9160443567ffffffffffffffff811161016b576101e790369060040161264c565b919060643567ffffffffffffffff811161016b5761020990369060040161264c565b93909160843567ffffffffffffffff811161016b5761022c90369060040161264c565b97909660e43567ffffffffffffffff811161016b5761024f90369060040161264c565b90610258612e5b565b610260612e8f565b610268612c9c565b6001600160a01b03881615610a5f578315610a375760a43515610a0f5760a4355f52600760205260405f20546109e8576002546102a490612bb0565b60e05260e051600255604051916102ba83612711565b60e05183526001600160a01b03891660208401526102d9368686612bd2565b60408401526102e9368888612bd2565b60608401526102f9368b8a612bd2565b6080840152610306612750565b60a0840152610316368d8d612bd2565b60c084015260a43560e08401524261010084015260c43561012084015261014083015f905233610160840152369061034d92612bd2565b61018082015260e0515f52600460205260405f2090805182556001820160208201516001600160a01b0316815473ffffffffffffffffffffffffffffffffffffffff191617905560028201604082015180519067ffffffffffffffff82116107c6576103c3826103bd85546126d9565b85612a3e565b602090601f8311600114610985576103f292915f91836107ee575b50508160011b915f199060031b1c19161790565b90555b60038201606082015180519067ffffffffffffffff82116107c65761041e826103bd85546126d9565b602090601f83116001146109225761044c92915f91836107ee5750508160011b915f199060031b1c19161790565b90555b60048201608082015180519067ffffffffffffffff82116107c657610478826103bd85546126d9565b602090601f83116001146108bf576104a692915f91836107ee5750508160011b915f199060031b1c19161790565b90555b6005820160a082015180519067ffffffffffffffff82116107c6576104d2826103bd85546126d9565b602090601f831160011461085c5761050092915f91836107ee5750508160011b915f199060031b1c19161790565b90555b6006820160c082015180519067ffffffffffffffff82116107c65761052c826103bd85546126d9565b602090601f83116001146107f95761055a92915f91836107ee5750508160011b915f199060031b1c19161790565b90555b60e081015160078301556101008101516008830155610120810151600983015561014081015190600a830160038310156107da5761059e6101809382612a76565b61016082015174ffffffffffffffffffffffffffffffffffffffff001974ffffffffffffffffffffffffffffffffffffffff0083549260081b169116179055015180519067ffffffffffffffff82116107c65761060b82610602600b8601546126d9565b600b8601612a3e565b602090601f831160011461072a5792600b61066f846001600160a01b039b98957f76febb0cf64d3359db5c427c46c0717fb8a585faa49011b421b76da06ed86c189d9b98956106ec9b985f9261071f5750508160011b915f199060031b1c19161790565b9101555b61069560405183838237838101906005825260208160e0519303019020612c18565b8787165f5260066020526106ae60e05160405f20612c18565b60a4355f52600760205260e05160405f205581604051928392833781015f815203902099604051968796169960e051993395429560a435958a612c44565b0390a460017f9b779b17422d0df92223018b32b4d1fa46e071723d6817e2486d003becc55f0055602060405160e0518152f35b015190505f806103de565b90601f19831691600b85015f52815f20925f5b8181106107ae5750847f76febb0cf64d3359db5c427c46c0717fb8a585faa49011b421b76da06ed86c189c9a97946106ec9a9794600b946001600160a01b039e9b9860019510610796575b505050811b01910155610673565b01515f1960f88460031b161c191690555f8080610788565b9293602060018192878601518155019501930161073d565b634e487b7160e01b5f52604160045260245ffd5b634e487b7160e01b5f52602160045260245ffd5b015190508f806103de565b90601f19831691845f52815f20925f5b818110610844575090846001959493921061082c575b505050811b01905561055d565b01515f1960f88460031b161c191690558e808061081f565b92936020600181928786015181550195019301610809565b90601f19831691845f52815f20925f5b8181106108a7575090846001959493921061088f575b505050811b019055610503565b01515f1960f88460031b161c191690558e8080610882565b9293602060018192878601518155019501930161086c565b90601f19831691845f52815f20925f5b81811061090a57509084600195949392106108f2575b505050811b0190556104a9565b01515f1960f88460031b161c191690558e80806108e5565b929360206001819287860151815501950193016108cf565b90601f19831691845f52815f20925f5b81811061096d5750908460019594939210610955575b505050811b01905561044f565b01515f1960f88460031b161c191690558e8080610948565b92936020600181928786015181550195019301610932565b90601f19831691845f52815f20925f5b8181106109d057509084600195949392106109b8575b505050811b0190556103f5565b01515f1960f88460031b161c191690558e80806109ab565b92936020600181928786015181550195019301610995565b60a4355f52600760205260405f20546327556da960e11b5f5260a43560045260245260445ffd5b7f192d9976000000000000000000000000000000000000000000000000000000005f5260045ffd5b7f47029596000000000000000000000000000000000000000000000000000000005f5260045ffd5b7f9c8d2cd2000000000000000000000000000000000000000000000000000000005f5260045ffd5b3461016b57610a95366128c9565b610aa0929192612e5b565b610aa8612e8f565b610ab0612c9c565b815f526004602052600860405f20015415610c9957815f52600460205260405f20600a810160ff81541660038110156107da57600114610c6d57600160ff19825416179055825f52600860205260405f2067ffffffffffffffff83116107c657610b2483610b1e83546126d9565b83612a3e565b5f601f8411600114610bde5783926001600160a01b0392610b7e857fefed01dc45262068b7e2f972b088fa576dec0695088318d860b565d4a954ff78976001955f91610bd3575b508160011b915f199060031b1c19161790565b90555b60078101545f5260076020525f604081205501541693610baa6040519283924291339185612aae565b0390a360017f9b779b17422d0df92223018b32b4d1fa46e071723d6817e2486d003becc55f0055005b90508a01358b610b6b565b601f19841690825f5260205f20915f5b818110610c555750926001928695927fefed01dc45262068b7e2f972b088fa576dec0695088318d860b565d4a954ff78976001600160a01b039610610c3c575b50508285811b019055610b81565b8901355f19600388901b60f8161c191690558880610c2e565b9192602060018192868c013581550194019201610bee565b837f9f113c40000000000000000000000000000000000000000000000000000000005f5260045260245ffd5b506302725f8b60e61b5f5260045260245ffd5b3461016b57604036600319011261016b57610cee600435610ccb612690565b90610ce9610ce4825f525f602052600160405f20015490565b612d0b565b612dd8565b005b3461016b57602036600319011261016b576004355f526009602052602060ff60405f2054166040519015158152f35b3461016b57602036600319011261016b57600435610d3b612adb565b50805f526004602052600860405f20015415610e49575f526004602052610e4560405f20610e2b600b60405192610d7184612711565b805484526001600160a01b036001820154166020850152610d9460028201612807565b6040850152610da560038201612807565b6060850152610db660048201612807565b6080850152610dc760058201612807565b60a0850152610dd860068201612807565b60c0850152600781015460e0850152600881015461010085015260098101546101208501526001600160a01b03600a820154610e1b60ff82166101408801612b3a565b60081c1661016085015201612807565b61018082015260405191829160208352602083019061290a565b0390f35b6302725f8b60e61b5f5260045260245ffd5b3461016b5761010036600319011261016b5760243567ffffffffffffffff811161016b57610e8d9036906004016129f7565b610380526102005260443567ffffffffffffffff811161016b57610eb59036906004016129f7565b610300526102205260643567ffffffffffffffff811161016b57610edd9036906004016129f7565b610360526103405260843567ffffffffffffffff811161016b57610f059036906004016129f7565b6102e0526102c05260a43567ffffffffffffffff811161016b57610f2d9036906004016129f7565b6103a0526103205260c43567ffffffffffffffff811161016b57610f559036906004016129f7565b610280526102605260e43567ffffffffffffffff811161016b57610f7d9036906004016129f7565b6102a05261024052610f8d612e5b565b610f95612e8f565b610f9d612c9c565b6004355f52600960205260ff60405f205416611ae657610300516103805114801590611ad6575b8015611ac6575b8015611ab6575b8015611aa6575b8015611a96575b611a6e57611003610ff361038051612b46565b6040516101e0526101e05161272e565b610380516101e05152601f1961101b61038051612b46565b013660206101e05101375f6101a0525b610380516101a051106110dd576004355f52600960205260405f20600160ff19825416179055604051606081527f8f311d7ea4be4dd02412224512f7e55aec901acca27f54a33a041c74a3870e84611089606083016101e0516126a6565b9161038051602082015233604082015280600435930390a260017f9b779b17422d0df92223018b32b4d1fa46e071723d6817e2486d003becc55f00556040516020815280610e45602082016101e0516126a6565b6110f16101a0516103805161020051612b5e565b356001600160a01b038116810361016b576111166101a0516103005161022051612b6e565b909161112c6101a0516103605161034051612b6e565b6111436101a0939293516102e0516102c051612b6e565b6101c0529061115c6101a0516103a05161032051612b6e565b9690956111736101a0516102805161026051612b5e565b35916111896101a0516102a05161024051612b5e565b60206101408190526040519135906111a1908361272e565b5f82526001600160a01b03881615610a5f578315610a37578415610a0f57845f526007610140515260405f2054611a48578891889161126e8c8e6111e6600254612bb0565b61018052610180516002556112416040519761120189612711565b6101805189526001600160a01b03610140518a0198168852611224368c8c612bd2565b6101605260408901610120526101605161012051528c3691612bd2565b6060880152611255368d6101c05190612bd2565b6080880152611262612750565b60a08801523691612bd2565b60c08501528660e0850152426101008501526101208401525f61014084015233610160840152610180830152610180515f526004610140515260405f2061010052815161010051556001600160a01b036001610100510191511673ffffffffffffffffffffffffffffffffffffffff19825416179055610120515180519067ffffffffffffffff82116107c65761131b8261130f60026101005101546126d9565b60026101005101612a3e565b6101405190601f83116001146119d05761134b92915f91836117e55750508160011b915f199060031b1c19161790565b60026101005101555b606081015180519067ffffffffffffffff82116107c65761138b8261137f60036101005101546126d9565b60036101005101612a3e565b6101405190601f8311600114611958576113bb92915f91836117e55750508160011b915f199060031b1c19161790565b60036101005101555b608081015180519067ffffffffffffffff82116107c6576113fb826113ef60046101005101546126d9565b60046101005101612a3e565b6101405190601f83116001146118e05761142b92915f91836117e55750508160011b915f199060031b1c19161790565b60046101005101555b60a081015180519067ffffffffffffffff82116107c65761146b8261145f60056101005101546126d9565b60056101005101612a3e565b6101405190601f83116001146118685761149b92915f91836117e55750508160011b915f199060031b1c19161790565b60056101005101555b60c081015180519067ffffffffffffffff82116107c6576114db826114cf60066101005101546126d9565b60066101005101612a3e565b6101405190601f83116001146117f05761150b92915f91836117e55750508160011b915f199060031b1c19161790565b60066101005101555b60e0810151600761010051015561010081015160086101005101556101208101516009610100510155600a6101005101906101408101519160038310156107da576115626101809382612a76565b61016082015174ffffffffffffffffffffffffffffffffffffffff001974ffffffffffffffffffffffffffffffffffffffff0083549260081b169116179055015160c05260c0515167ffffffffffffffff81116107c6576115d9816115cd600b6101005101546126d9565b600b6101005101612a3e565b6101405160a0526001601f82111461172d57926001600160a01b0395927f76febb0cf64d3359db5c427c46c0717fb8a585faa49011b421b76da06ed86c1897959261163a866116c6975f90611712578160011b915f199060031b1c19161790565b600b6101005101555b611669604051838382378381019060058252610180519181610140519103019020612c18565b8787165f52600661014051526116856101805160405f20612c18565b825f52600761014051526101805160405f205581604051928392833781015f81520390209960405196879616996101805199339542956101c051928a612c44565b0390a46101e051516101a05110156116fe5761018051610140516101a05160051b6101e05101015260016101a051016101a05261102b565b634e487b7160e01b5f52603260045260245ffd5b5060a05160c05101518160011b915f199060031b1c19161790565b600b61010051015f52610140515f206080525f5b601f19821681106117bb5750926001600160a01b0395927f76febb0cf64d3359db5c427c46c0717fb8a585faa49011b421b76da06ed86c189795926001866116c697601f1981161061179e575b811b01600b610100510155611643565b60a05160c05101515f1960f88360031b161c19166080515561178e565b60a05160c0510151608051556001608051016080526101405160a0510160a0526101405101611741565b015190508d806103de565b9190600661010051015f52610140515f20905f935b601f198416851061184b576001945083601f19811610611833575b505050811b016006610100510155611514565b01515f1960f88460031b161c191690558c8080611820565b818101518355610140519485019460019093019290910190611805565b9190600561010051015f52610140515f20905f935b601f19841685106118c3576001945083601f198116106118ab575b505050811b0160056101005101556114a4565b01515f1960f88460031b161c191690558c8080611898565b81810151835561014051948501946001909301929091019061187d565b9190600461010051015f52610140515f20905f935b601f198416851061193b576001945083601f19811610611923575b505050811b016004610100510155611434565b01515f1960f88460031b161c191690558c8080611910565b8181015183556101405194850194600190930192909101906118f5565b9190600361010051015f52610140515f20905f935b601f19841685106119b3576001945083601f1981161061199b575b505050811b0160036101005101556113c4565b01515f1960f88460031b161c191690558c8080611988565b81810151835561014051948501946001909301929091019061196d565b9190600261010051015f52610140515f20905f935b601f1984168510611a2b576001945083601f19811610611a13575b505050811b016002610100510155611354565b01515f1960f88460031b161c191690558c8080611a00565b8181015183556101405194850194600190930192909101906119e5565b84805f526007610140515260405f2054906327556da960e11b5f5260045260245260445ffd5b7fa24a13a6000000000000000000000000000000000000000000000000000000005f5260045ffd5b506102a051610380511415610fe0565b5061028051610380511415610fd9565b506103a051610380511415610fd2565b506102e051610380511415610fcb565b5061036051610380511415610fc4565b7fbd6afbc9000000000000000000000000000000000000000000000000000000005f5260043560045260245ffd5b3461016b575f36600319011261016b5760206040515f8152f35b3461016b57604036600319011261016b57600435611b4a612adb565b50805f526004602052600860405f20015415610e49575f52600460205260405f2060405190611b7882612711565b805482526001600160a01b036001820154166020830152611b9b60028201612807565b6040830152611bac60038201612807565b6060830152611bbd60048201612807565b6080830152611bce60058201612807565b60a0830152611bdf60068201612807565b60c083015260078101549160e0810192835260088201546101008201526009820154610120820152611c2d600b600a840154936001600160a01b03610140850195610e1b60ff821688612b3a565b61018082015281519260038410156107da5751602435149182611c78575b50610e4590611c676040519485941515855260208501906128fd565b60606040840152606083019061290a565b9091505160038110156107da571590610e45611c4b565b3461016b57602036600319011261016b57600435805f526004602052600860405f20015415610e49575f526008602052610e45611cce60405f20612807565b6040519182916020835260208301906128a5565b3461016b57604036600319011261016b57611cfb612690565b6004355f525f6020526001600160a01b0360405f2091165f52602052602060ff60405f2054166040519015158152f35b3461016b575f36600319011261016b57611d43612c9c565b611d4b612e5b565b600160ff19815416176001557f62e78cea01bee320cd4e420270b5ea74000d11b0c9f74754ebdbfc544b05a2586020604051338152a1005b3461016b57602036600319011261016b5760043567ffffffffffffffff811161016b57611db6602091369060040161264c565b9190826040519384928337810160058152030190206040519081602082549182815201915f5260205f20905f5b818110611e0e57610e4585611dfa8187038261272e565b6040519182916020835260208301906126a6565b8254845260209093019260019283019201611de3565b3461016b575f36600319011261016b5760206040517fa49807205ce4d355092ef5a8a18f56e8913cf4a201fbe287825b095693c217758152f35b3461016b57611e6c366128c9565b91611e75612e5b565b611e7d612e8f565b611e85612c9c565b805f526004602052600860405f20015415610e4957805f52600460205260ff600a60405f2001541660038110156107da5761201157805f526004602052600a60405f2001600260ff19825416179055805f52600860205260405f209267ffffffffffffffff81116107c657611f0481611efe86546126d9565b86612a3e565b5f93601f8211600114611f8e57611f5382807fdd9e31e31172f29937714904bfbd5ccd600a186c0de3a6feab80d73a1fbb23359596975f91611f8357508160011b915f199060031b1c19161790565b90555b825f5260046020526001600160a01b03600160405f2001541693610baa6040519283924291339185612aae565b905087013588610b6b565b601f19821694815f5260205f20905f5b878110611ff95750837fdd9e31e31172f29937714904bfbd5ccd600a186c0de3a6feab80d73a1fbb233595969710611fe0575b5050600182811b019055611f56565b8601355f19600385901b60f8161c191690558580611fd1565b9091602060018192858a013581550193019101611f9e565b7f9b79a2dd000000000000000000000000000000000000000000000000000000005f5260045260245ffd5b3461016b575f36600319011261016b57602060ff600154166040519015158152f35b3461016b57602036600319011261016b5760043561207a612e5b565b612082612e8f565b61208a612c9c565b805f526004602052600860405f20015415610e4957805f52600460205260405f20600a810160ff81541660038110156107da576002036121a3576001600160a01b039160019160ff19815416905560078101545f5260076020528360405f2055835f52600860205260405f2061210081546126d9565b9081612162575b5050015416907f544ca6af4db1d468a258d7582d955bff9ab3a0c61ffd95115091b4ad831cf94d60408051338152426020820152a360017f9b779b17422d0df92223018b32b4d1fa46e071723d6817e2486d003becc55f0055005b81601f5f931185146121785750555b8480612107565b8183526020832061219391601f0160051c8101908601612a28565b8082528160208120915555612171565b60846040517f08c379a000000000000000000000000000000000000000000000000000000000815260206004820152603660248201527f4469706c6f6d6152656769737472793a2063616e206f6e6c79207265696e737460448201527f6174652073757370656e646564206469706c6f6d6173000000000000000000006064820152fd5b3461016b575f36600319011261016b5761223f612c9c565b60015460ff81161561227e5760ff19166001557f5db9ee0a495bf2e6ff9c91a7834c1ba4fdd244a5e8aa4e537bd38aeae4b073aa6020604051338152a1005b7f8dfc202b000000000000000000000000000000000000000000000000000000005f5260045ffd5b3461016b575f36600319011261016b57610e45611cce612750565b3461016b57604036600319011261016b576122da612690565b336001600160a01b038216036122f657610cee90600435612dd8565b7f6697b232000000000000000000000000000000000000000000000000000000005f5260045ffd5b3461016b57604036600319011261016b57610cee60043561233d612690565b90612356610ce4825f525f602052600160405f20015490565b612d4b565b3461016b57602036600319011261016b576001600160a01b0361237c61267a565b165f52600660205260405f206040519081602082549182815201915f5260205f20905f5b8181106123b757610e4585611dfa8187038261272e565b82548452602090930192600192830192016123a0565b3461016b57602036600319011261016b5760206123f76004355f525f602052600160405f20015490565b604051908152f35b3461016b57602036600319011261016b5760043567ffffffffffffffff811161016b5761243090369060040161264c565b335f9081527fad3228b676f7d3cd4284a5443f17f1962b36e491b30a40b2405849e597ba5fb5602052604090205460ff16156125975767ffffffffffffffff81116107c6576124806003546126d9565b601f811161253e575b505f601f82116001146124c65781906124b6935f926124bb5750508160011b915f199060031b1c19161790565b600355005b0135905083806103de565b601f198216927fc2575a0e9e593c00f959f8c92f12db2869c3395a3b0502d05e2516446f71f85b915f5b8581106125265750836001951061250d575b505050811b01600355005b01355f19600384901b60f8161c19169055828080612502565b909260206001819286860135815501940191016124f0565b60035f52612587907fc2575a0e9e593c00f959f8c92f12db2869c3395a3b0502d05e2516446f71f85b601f840160051c8101916020851061258d575b601f0160051c0190612a28565b82612489565b909150819061257a565b63e2517d3f60e01b5f52336004525f60245260445ffd5b3461016b57602036600319011261016b57600435907fffffffff00000000000000000000000000000000000000000000000000000000821680920361016b57817f7965db0b0000000000000000000000000000000000000000000000000000000060209314908115612622575b5015158152f35b7f01ffc9a7000000000000000000000000000000000000000000000000000000009150148361261b565b9181601f8401121561016b5782359167ffffffffffffffff831161016b576020838186019501011161016b57565b600435906001600160a01b038216820361016b57565b602435906001600160a01b038216820361016b57565b90602080835192838152019201905f5b8181106126c35750505090565b82518452602093840193909201916001016126b6565b90600182811c92168015612707575b60208310146126f357565b634e487b7160e01b5f52602260045260245ffd5b91607f16916126e8565b6101a0810190811067ffffffffffffffff8211176107c657604052565b90601f8019910116810190811067ffffffffffffffff8211176107c657604052565b604051905f8260035491612763836126d9565b80835292600181169081156127e85750600114612789575b6127879250038361272e565b565b5060035f90815290917fc2575a0e9e593c00f959f8c92f12db2869c3395a3b0502d05e2516446f71f85b5b8183106127cc5750509060206127879282010161277b565b60209193508060019154838589010152019101909184926127b4565b6020925061278794915060ff191682840152151560051b82010161277b565b9060405191825f82549261281a846126d9565b8084529360018116908115612883575060011461283f575b506127879250038361272e565b90505f9291925260205f20905f915b818310612867575050906020612787928201015f612832565b602091935080600191548385890101520191019091849261284e565b90506020925061278794915060ff191682840152151560051b8201015f612832565b805180835260209291819084018484015e5f828201840152601f01601f1916010190565b90604060031983011261016b57600435916024359067ffffffffffffffff821161016b576128f99160040161264c565b9091565b9060038210156107da5752565b6129f491815181526001600160a01b03602083015116602082015261018061299761298561297361296161294f60408801516101a060408901526101a08801906128a5565b606088015187820360608901526128a5565b608087015186820360808801526128a5565b60a086015185820360a08701526128a5565b60c085015184820360c08601526128a5565b9260e081015160e08401526101008101516101008401526101208101516101208401526129ce6101408201516101408501906128fd565b6001600160a01b03610160820151166101608401520151906101808184039101526128a5565b90565b9181601f8401121561016b5782359167ffffffffffffffff831161016b576020808501948460051b01011161016b57565b818110612a33575050565b5f8155600101612a28565b9190601f8111612a4d57505050565b612787925f5260205f20906020601f840160051c8301931061258d57601f0160051c0190612a28565b9060038110156107da5760ff80198354169116179055565b908060209392818452848401375f828201840152601f01601f1916010190565b90612ad06001600160a01b039160409497969597606085526060850191612a8e565b951660208201520152565b60405190612ae882612711565b6060610180835f81525f602082015282604082015282808201528260808201528260a08201528260c08201525f60e08201525f6101008201525f6101208201525f6101408201525f6101608201520152565b60038210156107da5752565b67ffffffffffffffff81116107c65760051b60200190565b91908110156116fe5760051b0190565b91908110156116fe5760051b81013590601e198136030182121561016b57019081359167ffffffffffffffff831161016b57602001823603811361016b579190565b5f198114612bbe5760010190565b634e487b7160e01b5f52601160045260245ffd5b92919267ffffffffffffffff82116107c65760405191612bfc601f8201601f19166020018461272e565b82948184528183011161016b578281602093845f960137010152565b805490680100000000000000008210156107c657600182018082558210156116fe575f5260205f200155565b9793612c8b93612c7d91612c6f6001600160a01b03999460a09b9e9d999660c08e8181520191612a8e565b918b830360208d0152612a8e565b9188830360408a0152612a8e565b966060860152608085015216910152565b335f9081527f7d7ffb7a348e1c6a02869081a26547b49160dd3df72d1d75a570eb9b698292ec602052604090205460ff1615612cd457565b63e2517d3f60e01b5f52336004527fa49807205ce4d355092ef5a8a18f56e8913cf4a201fbe287825b095693c2177560245260445ffd5b805f525f60205260405f206001600160a01b0333165f5260205260ff60405f20541615612d355750565b63e2517d3f60e01b5f523360045260245260445ffd5b805f525f60205260405f206001600160a01b0383165f5260205260ff60405f205416155f14612dd257805f525f60205260405f206001600160a01b0383165f5260205260405f20600160ff198254161790556001600160a01b03339216907f2f8788117e7eff1d82e926ec794901d17c78024a50270940304540a733656f0d5f80a4600190565b50505f90565b805f525f60205260405f206001600160a01b0383165f5260205260ff60405f2054165f14612dd257805f525f60205260405f206001600160a01b0383165f5260205260405f2060ff1981541690556001600160a01b03339216907ff6391f5c32d9c69d2a47ea670b442974b53935d1edc7fd64eb21e047a839171b5f80a4600190565b60ff60015416612e6757565b7fd93c0665000000000000000000000000000000000000000000000000000000005f5260045ffd5b60027f9b779b17422d0df92223018b32b4d1fa46e071723d6817e2486d003becc55f005414612ede5760027f9b779b17422d0df92223018b32b4d1fa46e071723d6817e2486d003becc55f0055565b7f3ee5aeb5000000000000000000000000000000000000000000000000000000005f5260045ffdfea2646970667358221220b1ef12d95f162e40b6cdb491f2bcf2f81009fef9efb24421b2282af60f38cb3764736f6c634300081c00332f8788117e7eff1d82e926ec794901d17c78024a50270940304540a733656f0d7d7ffb7a348e1c6a02869081a26547b49160dd3df72d1d75a570eb9b698292ecad3228b676f7d3cd4284a5443f17f1962b36e491b30a40b2405849e597ba5fb5",
  "devdoc": {
    "details": "Deployed trên Polygon (Layer 2) để tối ưu phí gas",
    "errors": {
      "AccessControlBadConfirmation()": [
        {
          "details": "The caller of a function is not the expected one. NOTE: Don't confuse with {AccessControlUnauthorizedAccount}."
        }
      ],
      "AccessControlUnauthorizedAccount(address,bytes32)": [
        {
          "details": "The `account` is missing a role."
        }
      ],
      "EnforcedPause()": [
        {
          "details": "The operation failed because the contract is paused."
        }
      ],
      "ExpectedPause()": [
        {
          "details": "The operation failed because the contract is not paused."
        }
      ],
      "ReentrancyGuardReentrantCall()": [
        {
          "details": "Unauthorized reentrant call."
        }
      ]
    },
    "events": {
      "Paused(address)": {
        "details": "Emitted when the pause is triggered by `account`."
      },
      "RoleAdminChanged(bytes32,bytes32,bytes32)": {
        "details": "Emitted when `newAdminRole` is set as ``role``'s admin role, replacing `previousAdminRole` `DEFAULT_ADMIN_ROLE` is the starting admin for all roles, despite {RoleAdminChanged} not being emitted to signal this."
      },
      "RoleGranted(bytes32,address,address)": {
        "details": "Emitted when `account` is granted `role`. `sender` is the account that originated the contract call. This account bears the admin role (for the granted role). Expected in cases where the role was granted using the internal {AccessControl-_grantRole}."
      },
      "RoleRevoked(bytes32,address,address)": {
        "details": "Emitted when `account` is revoked `role`. `sender` is the account that originated the contract call:   - if using `revokeRole`, it is the admin role bearer   - if using `renounceRole`, it is the role bearer (i.e. `account`)"
      },
      "Unpaused(address)": {
        "details": "Emitted when the pause is lifted by `account`."
      }
    },
    "kind": "dev",
    "methods": {
      "batchIssueDiplomas(bytes32,address[],string[],string[],string[],string[],bytes32[],uint256[])": {
        "params": {
          "batchId": "ID định danh batch (tránh xử lý trùng)"
        }
      },
      "constructor": {
        "params": {
          "_institutionName": "Tên trường",
          "_schoolAdmin": "Ví nhà trường — nhận DEFAULT_ADMIN_ROLE + ADMIN_ROLE"
        }
      },
      "findByDocumentHash(bytes32)": {
        "details": "Dùng cho public verification portal (nhà tuyển dụng kéo thả file)"
      },
      "getRoleAdmin(bytes32)": {
        "details": "Returns the admin role that controls `role`. See {grantRole} and {revokeRole}. To change a role's admin, use {_setRoleAdmin}."
      },
      "grantRole(bytes32,address)": {
        "details": "Grants `role` to `account`. If `account` had not been already granted `role`, emits a {RoleGranted} event. Requirements: - the caller must have ``role``'s admin role. May emit a {RoleGranted} event."
      },
      "hasRole(bytes32,address)": {
        "details": "Returns `true` if `account` has been granted `role`."
      },
      "issueDiploma(address,string,string,string,string,bytes32,uint256,string)": {
        "params": {
          "degreeTitle": "Tên văn bằng / chuyên ngành",
          "documentHash": "Keccak256 hash của file PDF",
          "graduationYear": "Năm tốt nghiệp",
          "ipfsCID": "CID của file PDF trên IPFS",
          "recipient": "Địa chỉ ví của sinh viên",
          "remarks": "Ghi chú thêm",
          "studentId": "Mã số sinh viên",
          "studentName": "Họ tên sinh viên"
        },
        "returns": {
          "tokenId": "     ID của văn bằng vừa cấp"
        }
      },
      "paused()": {
        "details": "Returns true if the contract is paused, and false otherwise."
      },
      "renounceRole(bytes32,address)": {
        "details": "Revokes `role` from the calling account. Roles are often managed via {grantRole} and {revokeRole}: this function's purpose is to provide a mechanism for accounts to lose their privileges if they are compromised (such as when a trusted device is misplaced). If the calling account had been revoked `role`, emits a {RoleRevoked} event. Requirements: - the caller must be `callerConfirmation`. May emit a {RoleRevoked} event."
      },
      "revokeDiploma(uint256,string)": {
        "details": "Tương đương \"Burn\" trong đặc tả, nhưng giữ lại lịch sử on-chain"
      },
      "revokeRole(bytes32,address)": {
        "details": "Revokes `role` from `account`. If `account` had been granted `role`, emits a {RoleRevoked} event. Requirements: - the caller must have ``role``'s admin role. May emit a {RoleRevoked} event."
      },
      "supportsInterface(bytes4)": {
        "details": "Returns true if this contract implements the interface defined by `interfaceId`. See the corresponding https://eips.ethereum.org/EIPS/eip-165#how-interfaces-are-identified[ERC section] to learn more about how these ids are created. This function call must use less than 30 000 gas."
      },
      "verifyDiploma(uint256,bytes32)": {
        "params": {
          "fileHash": "Hash của file PDF do nhà tuyển dụng upload",
          "tokenId": "ID văn bằng cần kiểm tra"
        },
        "returns": {
          "diploma": "    Thông tin văn bằng đầy đủ",
          "isValid": "    True nếu file khớp và bằng còn hiệu lực",
          "status": "     Trạng thái hiệu lực"
        }
      }
    },
    "title": "DiplomaRegistry - Hệ thống Quản lý Văn bằng (Soulbound Token)",
    "version": 1
  },
  "userdoc": {
    "kind": "user",
    "methods": {
      "batchIssueDiplomas(bytes32,address[],string[],string[],string[],string[],bytes32[],uint256[])": {
        "notice": "Cấp hàng loạt văn bằng (Batch Mint) - dùng cho BullMQ queue"
      },
      "findByDocumentHash(bytes32)": {
        "notice": "Tra cứu tokenId bằng hash của file PDF"
      },
      "getDiploma(uint256)": {
        "notice": "Lấy toàn bộ thông tin văn bằng theo tokenId"
      },
      "getDiplomasByStudentId(string)": {
        "notice": "Lấy danh sách tokenId của một sinh viên theo mã SV"
      },
      "getDiplomasByWallet(address)": {
        "notice": "Lấy danh sách tokenId theo địa chỉ ví"
      },
      "getRevocationReason(uint256)": {
        "notice": "Lý do thu hồi bằng"
      },
      "isBatchProcessed(bytes32)": {
        "notice": "Kiểm tra batch đã được xử lý chưa"
      },
      "issueDiploma(address,string,string,string,string,bytes32,uint256,string)": {
        "notice": "Cấp một văn bằng cho sinh viên"
      },
      "reinstateDiploma(uint256)": {
        "notice": "Khôi phục văn bằng từ trạng thái Suspended"
      },
      "revokeDiploma(uint256,string)": {
        "notice": "Thu hồi (Revoke) văn bằng vĩnh viễn - không thể khôi phục"
      },
      "suspendDiploma(uint256,string)": {
        "notice": "Tạm đình chỉ văn bằng (Suspend) - có thể khôi phục"
      },
      "totalIssued()": {
        "notice": "Tổng số văn bằng đã cấp"
      },
      "updateInstitutionName(string)": {
        "notice": "Cập nhật tên trường (nếu cần thiết)"
      },
      "verifyDiploma(uint256,bytes32)": {
        "notice": "Xác thực tính toàn vẹn của file PDF"
      }
    },
    "notice": "SBT (EIP-5114) - Token KHÔNG thể chuyển nhượng, đại diện cho văn bằng",
    "version": 1
  },
  "storageLayout": {
    "storage": [
      {
        "astId": 26,
        "contract": "contracts/DiplomaRegistry.sol:DiplomaRegistry",
        "label": "_roles",
        "offset": 0,
        "slot": "0",
        "type": "t_mapping(t_bytes32,t_struct(RoleData)21_storage)"
      },
      {
        "astId": 417,
        "contract": "contracts/DiplomaRegistry.sol:DiplomaRegistry",
        "label": "_paused",
        "offset": 0,
        "slot": "1",
        "type": "t_bool"
      },
      {
        "astId": 840,
        "contract": "contracts/DiplomaRegistry.sol:DiplomaRegistry",
        "label": "_tokenIdCounter",
        "offset": 0,
        "slot": "2",
        "type": "t_uint256"
      },
      {
        "astId": 842,
        "contract": "contracts/DiplomaRegistry.sol:DiplomaRegistry",
        "label": "institutionName",
        "offset": 0,
        "slot": "3",
        "type": "t_string_storage"
      },
      {
        "astId": 847,
        "contract": "contracts/DiplomaRegistry.sol:DiplomaRegistry",
        "label": "_diplomas",
        "offset": 0,
        "slot": "4",
        "type": "t_mapping(t_uint256,t_struct(Diploma)838_storage)"
      },
      {
        "astId": 852,
        "contract": "contracts/DiplomaRegistry.sol:DiplomaRegistry",
        "label": "_studentDiplomas",
        "offset": 0,
        "slot": "5",
        "type": "t_mapping(t_string_memory_ptr,t_array(t_uint256)dyn_storage)"
      },
      {
        "astId": 857,
        "contract": "contracts/DiplomaRegistry.sol:DiplomaRegistry",
        "label": "_walletDiplomas",
        "offset": 0,
        "slot": "6",
        "type": "t_mapping(t_address,t_array(t_uint256)dyn_storage)"
      },
      {
        "astId": 861,
        "contract": "contracts/DiplomaRegistry.sol:DiplomaRegistry",
        "label": "_hashToTokenId",
        "offset": 0,
        "slot": "7",
        "type": "t_mapping(t_bytes32,t_uint256)"
      },
      {
        "astId": 865,
        "contract": "contracts/DiplomaRegistry.sol:DiplomaRegistry",
        "label": "_revocationReasons",
        "offset": 0,
        "slot": "8",
        "type": "t_mapping(t_uint256,t_string_storage)"
      },
      {
        "astId": 869,
        "contract": "contracts/DiplomaRegistry.sol:DiplomaRegistry",
        "label": "_processedBatches",
        "offset": 0,
        "slot": "9",
        "type": "t_mapping(t_bytes32,t_bool)"
      }
    ],
    "types": {
      "t_address": {
        "encoding": "inplace",
        "label": "address",
        "numberOfBytes": "20"
      },
      "t_array(t_uint256)dyn_storage": {
        "base": "t_uint256",
        "encoding": "dynamic_array",
        "label": "uint256[]",
        "numberOfBytes": "32"
      },
      "t_bool": {
        "encoding": "inplace",
        "label": "bool",
        "numberOfBytes": "1"
      },
      "t_bytes32": {
        "encoding": "inplace",
        "label": "bytes32",
        "numberOfBytes": "32"
      },
      "t_enum(DiplomaStatus)810": {
        "encoding": "inplace",
        "label": "enum DiplomaRegistry.DiplomaStatus",
        "numberOfBytes": "1"
      },
      "t_mapping(t_address,t_array(t_uint256)dyn_storage)": {
        "encoding": "mapping",
        "key": "t_address",
        "label": "mapping(address => uint256[])",
        "numberOfBytes": "32",
        "value": "t_array(t_uint256)dyn_storage"
      },
      "t_mapping(t_address,t_bool)": {
        "encoding": "mapping",
        "key": "t_address",
        "label": "mapping(address => bool)",
        "numberOfBytes": "32",
        "value": "t_bool"
      },
      "t_mapping(t_bytes32,t_bool)": {
        "encoding": "mapping",
        "key": "t_bytes32",
        "label": "mapping(bytes32 => bool)",
        "numberOfBytes": "32",
        "value": "t_bool"
      },
      "t_mapping(t_bytes32,t_struct(RoleData)21_storage)": {
        "encoding": "mapping",
        "key": "t_bytes32",
        "label": "mapping(bytes32 => struct AccessControl.RoleData)",
        "numberOfBytes": "32",
        "value": "t_struct(RoleData)21_storage"
      },
      "t_mapping(t_bytes32,t_uint256)": {
        "encoding": "mapping",
        "key": "t_bytes32",
        "label": "mapping(bytes32 => uint256)",
        "numberOfBytes": "32",
        "value": "t_uint256"
      },
      "t_mapping(t_string_memory_ptr,t_array(t_uint256)dyn_storage)": {
        "encoding": "mapping",
        "key": "t_string_memory_ptr",
        "label": "mapping(string => uint256[])",
        "numberOfBytes": "32",
        "value": "t_array(t_uint256)dyn_storage"
      },
      "t_mapping(t_uint256,t_string_storage)": {
        "encoding": "mapping",
        "key": "t_uint256",
        "label": "mapping(uint256 => string)",
        "numberOfBytes": "32",
        "value": "t_string_storage"
      },
      "t_mapping(t_uint256,t_struct(Diploma)838_storage)": {
        "encoding": "mapping",
        "key": "t_uint256",
        "label": "mapping(uint256 => struct DiplomaRegistry.Diploma)",
        "numberOfBytes": "32",
        "value": "t_struct(Diploma)838_storage"
      },
      "t_string_memory_ptr": {
        "encoding": "bytes",
        "label": "string",
        "numberOfBytes": "32"
      },
      "t_string_storage": {
        "encoding": "bytes",
        "label": "string",
        "numberOfBytes": "32"
      },
      "t_struct(Diploma)838_storage": {
        "encoding": "inplace",
        "label": "struct DiplomaRegistry.Diploma",
        "members": [
          {
            "astId": 812,
            "contract": "contracts/DiplomaRegistry.sol:DiplomaRegistry",
            "label": "tokenId",
            "offset": 0,
            "slot": "0",
            "type": "t_uint256"
          },
          {
            "astId": 814,
            "contract": "contracts/DiplomaRegistry.sol:DiplomaRegistry",
            "label": "recipient",
            "offset": 0,
            "slot": "1",
            "type": "t_address"
          },
          {
            "astId": 816,
            "contract": "contracts/DiplomaRegistry.sol:DiplomaRegistry",
            "label": "studentId",
            "offset": 0,
            "slot": "2",
            "type": "t_string_storage"
          },
          {
            "astId": 818,
            "contract": "contracts/DiplomaRegistry.sol:DiplomaRegistry",
            "label": "studentName",
            "offset": 0,
            "slot": "3",
            "type": "t_string_storage"
          },
          {
            "astId": 820,
            "contract": "contracts/DiplomaRegistry.sol:DiplomaRegistry",
            "label": "degreeTitle",
            "offset": 0,
            "slot": "4",
            "type": "t_string_storage"
          },
          {
            "astId": 822,
            "contract": "contracts/DiplomaRegistry.sol:DiplomaRegistry",
            "label": "institution",
            "offset": 0,
            "slot": "5",
            "type": "t_string_storage"
          },
          {
            "astId": 824,
            "contract": "contracts/DiplomaRegistry.sol:DiplomaRegistry",
            "label": "ipfsCID",
            "offset": 0,
            "slot": "6",
            "type": "t_string_storage"
          },
          {
            "astId": 826,
            "contract": "contracts/DiplomaRegistry.sol:DiplomaRegistry",
            "label": "documentHash",
            "offset": 0,
            "slot": "7",
            "type": "t_bytes32"
          },
          {
            "astId": 828,
            "contract": "contracts/DiplomaRegistry.sol:DiplomaRegistry",
            "label": "issuedAt",
            "offset": 0,
            "slot": "8",
            "type": "t_uint256"
          },
          {
            "astId": 830,
            "contract": "contracts/DiplomaRegistry.sol:DiplomaRegistry",
            "label": "graduationYear",
            "offset": 0,
            "slot": "9",
            "type": "t_uint256"
          },
          {
            "astId": 833,
            "contract": "contracts/DiplomaRegistry.sol:DiplomaRegistry",
            "label": "status",
            "offset": 0,
            "slot": "10",
            "type": "t_enum(DiplomaStatus)810"
          },
          {
            "astId": 835,
            "contract": "contracts/DiplomaRegistry.sol:DiplomaRegistry",
            "label": "issuedBy",
            "offset": 1,
            "slot": "10",
            "type": "t_address"
          },
          {
            "astId": 837,
            "contract": "contracts/DiplomaRegistry.sol:DiplomaRegistry",
            "label": "remarks",
            "offset": 0,
            "slot": "11",
            "type": "t_string_storage"
          }
        ],
        "numberOfBytes": "384"
      },
      "t_struct(RoleData)21_storage": {
        "encoding": "inplace",
        "label": "struct AccessControl.RoleData",
        "members": [
          {
            "astId": 18,
            "contract": "contracts/DiplomaRegistry.sol:DiplomaRegistry",
            "label": "hasRole",
            "offset": 0,
            "slot": "0",
            "type": "t_mapping(t_address,t_bool)"
          },
          {
            "astId": 20,
            "contract": "contracts/DiplomaRegistry.sol:DiplomaRegistry",
            "label": "adminRole",
            "offset": 0,
            "slot": "1",
            "type": "t_bytes32"
          }
        ],
        "numberOfBytes": "64"
      },
      "t_uint256": {
        "encoding": "inplace",
        "label": "uint256",
        "numberOfBytes": "32"
      }
    }
  }
}